{
  "contractName": "PDS",
  "abi": [
    {
      "inputs": [
        {
          "internalType": "uint256",
          "name": "_quantityOfBag",
          "type": "uint256"
        }
      ],
      "stateMutability": "nonpayable",
      "type": "constructor"
    },
    {
      "anonymous": false,
      "inputs": [
        {
          "indexed": false,
          "internalType": "uint256",
          "name": "id",
          "type": "uint256"
        },
        {
          "indexed": false,
          "internalType": "address",
          "name": "customerId",
          "type": "address"
        },
        {
          "indexed": false,
          "internalType": "uint256",
          "name": "shopId",
          "type": "uint256"
        },
        {
          "components": [
            {
              "internalType": "uint256",
              "name": "_id",
              "type": "uint256"
            },
            {
              "internalType": "string",
              "name": "name",
              "type": "string"
            },
            {
              "internalType": "uint256",
              "name": "price",
              "type": "uint256"
            }
          ],
          "indexed": false,
          "internalType": "struct PDS._ItemsAvailable[]",
          "name": "itemsTaken",
          "type": "tuple[]"
        },
        {
          "indexed": false,
          "internalType": "uint256",
          "name": "timestamp",
          "type": "uint256"
        }
      ],
      "name": "Order",
      "type": "event"
    },
    {
      "anonymous": false,
      "inputs": [
        {
          "indexed": false,
          "internalType": "uint256",
          "name": "id",
          "type": "uint256"
        },
        {
          "indexed": false,
          "internalType": "uint256",
          "name": "fromId",
          "type": "uint256"
        },
        {
          "indexed": false,
          "internalType": "uint256",
          "name": "toId",
          "type": "uint256"
        },
        {
          "indexed": false,
          "internalType": "uint256[]",
          "name": "bagIds",
          "type": "uint256[]"
        },
        {
          "indexed": false,
          "internalType": "uint256",
          "name": "timestamp",
          "type": "uint256"
        }
      ],
      "name": "Received",
      "type": "event"
    },
    {
      "anonymous": false,
      "inputs": [
        {
          "indexed": false,
          "internalType": "uint256",
          "name": "id",
          "type": "uint256"
        },
        {
          "indexed": false,
          "internalType": "uint256",
          "name": "fromId",
          "type": "uint256"
        },
        {
          "indexed": false,
          "internalType": "uint256",
          "name": "toId",
          "type": "uint256"
        },
        {
          "indexed": false,
          "internalType": "uint256[]",
          "name": "bagIds",
          "type": "uint256[]"
        },
        {
          "indexed": false,
          "internalType": "uint256",
          "name": "timestamp",
          "type": "uint256"
        }
      ],
      "name": "Transfered",
      "type": "event"
    },
    {
      "inputs": [
        {
          "internalType": "string",
          "name": "",
          "type": "string"
        }
      ],
      "name": "AadharLinked",
      "outputs": [
        {
          "internalType": "address",
          "name": "",
          "type": "address"
        }
      ],
      "stateMutability": "view",
      "type": "function",
      "constant": true
    },
    {
      "inputs": [
        {
          "internalType": "uint256",
          "name": "",
          "type": "uint256"
        }
      ],
      "name": "bags",
      "outputs": [
        {
          "internalType": "uint256",
          "name": "id",
          "type": "uint256"
        },
        {
          "internalType": "string",
          "name": "item",
          "type": "string"
        }
      ],
      "stateMutability": "view",
      "type": "function",
      "constant": true
    },
    {
      "inputs": [
        {
          "internalType": "address",
          "name": "",
          "type": "address"
        }
      ],
      "name": "consumer",
      "outputs": [
        {
          "internalType": "bool",
          "name": "",
          "type": "bool"
        }
      ],
      "stateMutability": "view",
      "type": "function",
      "constant": true
    },
    {
      "inputs": [
        {
          "internalType": "address",
          "name": "",
          "type": "address"
        }
      ],
      "name": "districtAdmin",
      "outputs": [
        {
          "internalType": "bool",
          "name": "",
          "type": "bool"
        }
      ],
      "stateMutability": "view",
      "type": "function",
      "constant": true
    },
    {
      "inputs": [
        {
          "internalType": "uint256",
          "name": "",
          "type": "uint256"
        }
      ],
      "name": "items",
      "outputs": [
        {
          "internalType": "uint256",
          "name": "_id",
          "type": "uint256"
        },
        {
          "internalType": "string",
          "name": "name",
          "type": "string"
        },
        {
          "internalType": "uint256",
          "name": "price",
          "type": "uint256"
        }
      ],
      "stateMutability": "view",
      "type": "function",
      "constant": true
    },
    {
      "inputs": [
        {
          "internalType": "uint256",
          "name": "",
          "type": "uint256"
        }
      ],
      "name": "orders",
      "outputs": [
        {
          "internalType": "uint256",
          "name": "id",
          "type": "uint256"
        },
        {
          "internalType": "address",
          "name": "customerId",
          "type": "address"
        },
        {
          "internalType": "uint256",
          "name": "shopId",
          "type": "uint256"
        },
        {
          "internalType": "uint256",
          "name": "timestamp",
          "type": "uint256"
        }
      ],
      "stateMutability": "view",
      "type": "function",
      "constant": true
    },
    {
      "inputs": [],
      "name": "quantityOfBag",
      "outputs": [
        {
          "internalType": "uint256",
          "name": "",
          "type": "uint256"
        }
      ],
      "stateMutability": "view",
      "type": "function",
      "constant": true
    },
    {
      "inputs": [
        {
          "internalType": "uint256",
          "name": "",
          "type": "uint256"
        }
      ],
      "name": "receivedHistory",
      "outputs": [
        {
          "internalType": "uint256",
          "name": "id",
          "type": "uint256"
        },
        {
          "internalType": "uint256",
          "name": "fromId",
          "type": "uint256"
        },
        {
          "internalType": "uint256",
          "name": "toId",
          "type": "uint256"
        },
        {
          "internalType": "uint256",
          "name": "timestamp",
          "type": "uint256"
        }
      ],
      "stateMutability": "view",
      "type": "function",
      "constant": true
    },
    {
      "inputs": [
        {
          "internalType": "uint256",
          "name": "",
          "type": "uint256"
        }
      ],
      "name": "shops",
      "outputs": [
        {
          "internalType": "uint256",
          "name": "id",
          "type": "uint256"
        },
        {
          "internalType": "string",
          "name": "name",
          "type": "string"
        },
        {
          "internalType": "address",
          "name": "account",
          "type": "address"
        },
        {
          "internalType": "string",
          "name": "location",
          "type": "string"
        },
        {
          "internalType": "bool",
          "name": "exists",
          "type": "bool"
        }
      ],
      "stateMutability": "view",
      "type": "function",
      "constant": true
    },
    {
      "inputs": [
        {
          "internalType": "address",
          "name": "",
          "type": "address"
        }
      ],
      "name": "stateAdmin",
      "outputs": [
        {
          "internalType": "bool",
          "name": "",
          "type": "bool"
        }
      ],
      "stateMutability": "view",
      "type": "function",
      "constant": true
    },
    {
      "inputs": [
        {
          "internalType": "uint256",
          "name": "",
          "type": "uint256"
        }
      ],
      "name": "transferHistory",
      "outputs": [
        {
          "internalType": "uint256",
          "name": "id",
          "type": "uint256"
        },
        {
          "internalType": "uint256",
          "name": "fromId",
          "type": "uint256"
        },
        {
          "internalType": "uint256",
          "name": "toId",
          "type": "uint256"
        },
        {
          "internalType": "uint256",
          "name": "timestamp",
          "type": "uint256"
        }
      ],
      "stateMutability": "view",
      "type": "function",
      "constant": true
    },
    {
      "inputs": [
        {
          "internalType": "address",
          "name": "_user",
          "type": "address"
        }
      ],
      "name": "addStateAdmins",
      "outputs": [],
      "stateMutability": "nonpayable",
      "type": "function"
    },
    {
      "inputs": [
        {
          "internalType": "address",
          "name": "_user",
          "type": "address"
        }
      ],
      "name": "addDistrictAdmins",
      "outputs": [],
      "stateMutability": "nonpayable",
      "type": "function"
    },
    {
      "inputs": [
        {
          "internalType": "uint256",
          "name": "_id",
          "type": "uint256"
        },
        {
          "internalType": "string",
          "name": "_name",
          "type": "string"
        },
        {
          "internalType": "address",
          "name": "_recipientAddress",
          "type": "address"
        },
        {
          "internalType": "string",
          "name": "_location",
          "type": "string"
        }
      ],
      "name": "addShops",
      "outputs": [],
      "stateMutability": "nonpayable",
      "type": "function"
    },
    {
      "inputs": [
        {
          "internalType": "address",
          "name": "_user",
          "type": "address"
        }
      ],
      "name": "addConsumer",
      "outputs": [],
      "stateMutability": "nonpayable",
      "type": "function"
    },
    {
      "inputs": [
        {
          "internalType": "uint256",
          "name": "_id",
          "type": "uint256"
        },
        {
          "internalType": "string",
          "name": "_item",
          "type": "string"
        }
      ],
      "name": "addBags",
      "outputs": [],
      "stateMutability": "nonpayable",
      "type": "function"
    },
    {
      "inputs": [
        {
          "internalType": "uint256",
          "name": "_id",
          "type": "uint256"
        },
        {
          "internalType": "string",
          "name": "_name",
          "type": "string"
        },
        {
          "internalType": "uint256",
          "name": "_price",
          "type": "uint256"
        }
      ],
      "name": "addItems",
      "outputs": [],
      "stateMutability": "nonpayable",
      "type": "function"
    },
    {
      "inputs": [
        {
          "internalType": "uint256",
          "name": "_id",
          "type": "uint256"
        },
        {
          "internalType": "uint256",
          "name": "_price",
          "type": "uint256"
        }
      ],
      "name": "setItems",
      "outputs": [],
      "stateMutability": "nonpayable",
      "type": "function"
    },
    {
      "inputs": [
        {
          "internalType": "uint256",
          "name": "_fromId",
          "type": "uint256"
        },
        {
          "internalType": "uint256",
          "name": "_toId",
          "type": "uint256"
        },
        {
          "internalType": "uint256[]",
          "name": "_bagIds",
          "type": "uint256[]"
        }
      ],
      "name": "transferedBags",
      "outputs": [],
      "stateMutability": "nonpayable",
      "type": "function"
    },
    {
      "inputs": [
        {
          "internalType": "uint256",
          "name": "_fromId",
          "type": "uint256"
        },
        {
          "internalType": "uint256",
          "name": "_toId",
          "type": "uint256"
        },
        {
          "internalType": "uint256[]",
          "name": "_bagIds",
          "type": "uint256[]"
        }
      ],
      "name": "receivedBags",
      "outputs": [],
      "stateMutability": "nonpayable",
      "type": "function"
    },
    {
      "inputs": [
        {
          "internalType": "address",
          "name": "_customer",
          "type": "address"
        },
        {
          "internalType": "uint256",
          "name": "_shopId",
          "type": "uint256"
        },
        {
          "internalType": "uint256[]",
          "name": "_itemIds",
          "type": "uint256[]"
        },
        {
          "internalType": "uint256[]",
          "name": "_quantities",
          "type": "uint256[]"
        }
      ],
      "name": "orderMade",
      "outputs": [],
      "stateMutability": "nonpayable",
      "type": "function"
    }
  ],
  "bytecode": "0x60806040523480156200001157600080fd5b5060405162002283380380620022838339818101604052810190620000379190620000c5565b336000806101000a81548173ffffffffffffffffffffffffffffffffffffffff021916908373ffffffffffffffffffffffffffffffffffffffff1602179055508060018190555050620000f7565b600080fd5b6000819050919050565b6200009f816200008a565b8114620000ab57600080fd5b50565b600081519050620000bf8162000094565b92915050565b600060208284031215620000de57620000dd62000085565b5b6000620000ee84828501620000ae565b91505092915050565b61217c80620001076000396000f3fe608060405234801561001057600080fd5b50600436106101375760003560e01c8063713aca74116100b8578063c3ecfe911161007c578063c3ecfe9114610391578063c9ee7121146103ad578063dda4df4e146103c9578063de69b6ac146103fa578063f05ce1241461042a578063f4e15ba81461044657610137565b8063713aca74146102a9578063816c99de146102dd578063a85c38ef14610310578063b87c9f8914610343578063bfb231d21461035f57610137565b806319f46aad116100ff57806319f46aad146101de5780631bba6e59146101fa5780632d9984011461022a5780635e0e49ec1461025d5780636ba200881461027957610137565b806301db6db21461013c57806302d4afc314610158578063058e7cd1146101745780630985b056146101a4578063112940f9146101c2575b600080fd5b61015660048036038101906101519190611566565b610462565b005b610172600480360381019061016d9190611722565b610515565b005b61018e60048036038101906101899190611566565b610695565b60405161019b91906117ac565b60405180910390f35b6101ac6106b5565b6040516101b991906117d6565b60405180910390f35b6101dc60048036038101906101d79190611566565b6106bb565b005b6101f860048036038101906101f391906117f1565b61076c565b005b610214600480360381019061020f9190611566565b610a3f565b60405161022191906117ac565b60405180910390f35b610244600480360381019061023f9190611890565b610a5f565b60405161025494939291906118bd565b60405180910390f35b610277600480360381019061027291906119b7565b610a9f565b005b610293600480360381019061028e9190611a13565b610b4b565b6040516102a09190611a6b565b60405180910390f35b6102c360048036038101906102be9190611890565b610b94565b6040516102d4959493929190611b0e565b60405180910390f35b6102f760048036038101906102f29190611890565b610d07565b60405161030794939291906118bd565b60405180910390f35b61032a60048036038101906103259190611890565b610d47565b60405161033a9493929190611b6f565b60405180910390f35b61035d60048036038101906103589190611bb4565b610d97565b005b61037960048036038101906103749190611890565b610e0c565b60405161038893929190611bf4565b60405180910390f35b6103ab60048036038101906103a69190611722565b610ebe565b005b6103c760048036038101906103c29190611566565b611067565b005b6103e360048036038101906103de9190611890565b611118565b6040516103f1929190611c32565b60405180910390f35b610414600480360381019061040f9190611566565b6111c4565b60405161042191906117ac565b60405180910390f35b610444600480360381019061043f9190611c62565b6111e4565b005b610460600480360381019061045b9190611d01565b611347565b005b60008054906101000a900473ffffffffffffffffffffffffffffffffffffffff1673ffffffffffffffffffffffffffffffffffffffff163373ffffffffffffffffffffffffffffffffffffffff16146104ba57600080fd5b6001600260008373ffffffffffffffffffffffffffffffffffffffff1673ffffffffffffffffffffffffffffffffffffffff16815260200190815260200160002060006101000a81548160ff02191690831515021790555050565b600360003373ffffffffffffffffffffffffffffffffffffffff1673ffffffffffffffffffffffffffffffffffffffff16815260200190815260200160002060009054906101000a900460ff168061058d57506005600083815260200190815260200160002060040160009054906101000a900460ff165b61059657600080fd5b60006040518060a00160405280600b548152602001858152602001848152602001838152602001428152509050600b60008154809291906105d690611d9f565b9190505550600e8190806001815401808255809150506001900390600052602060002090600502016000909190919091506000820151816000015560208201518160010155604082015181600201556060820151816003019080519060200190610641929190611404565b506080820151816004015550507f2d5057fc6cbd73c0b6c2689c9ea36c987ca0421fa63aab4d276b05128132901d600b5485858542604051610687959493929190611ea6565b60405180910390a150505050565b60026020528060005260406000206000915054906101000a900460ff1681565b60015481565b600360003373ffffffffffffffffffffffffffffffffffffffff1673ffffffffffffffffffffffffffffffffffffffff16815260200190815260200160002060009054906101000a900460ff1661071157600080fd5b6001600660008373ffffffffffffffffffffffffffffffffffffffff1673ffffffffffffffffffffffffffffffffffffffff16815260200190815260200160002060006101000a81548160ff02191690831515021790555050565b6005600084815260200190815260200160002060040160009054906101000a900460ff1661079957600080fd5b6000600c6000600954815260200190815260200160002090506009548160000181905550848160010160006101000a81548173ffffffffffffffffffffffffffffffffffffffff021916908373ffffffffffffffffffffffffffffffffffffffff160217905550838160020181905550428160040181905550600083519050606060005b828110156109ae5784818151811061083857610837611f00565b5b602002602001015184600301600088848151811061085957610858611f00565b5b602002602001015181526020019081526020016000208190555060006007600088848151811061088c5761088b611f00565b5b60200260200101518152602001908152602001600020604051806060016040529081600082015481526020016001820180546108c790611f5e565b80601f01602080910402602001604051908101604052809291908181526020018280546108f390611f5e565b80156109405780601f1061091557610100808354040283529160200191610940565b820191906000526020600020905b81548152906001019060200180831161092357829003601f168201915b50505050508152602001600282015481525050905060405180606001604052808260000151815260200182602001518152602001826040015181525083838151811061098f5761098e611f00565b5b60200260200101819052505080806109a690611d9f565b91505061081d565b50600960008154809291906109c290611d9f565b91905055507f7f430ff4d64e6d6f9799278791b8fe1901d2fd5a2b922e01028b3ce5c36426c983600001548460010160009054906101000a900473ffffffffffffffffffffffffffffffffffffffff168560020154848760040154604051610a2e9594939291906120ec565b60405180910390a150505050505050565b60036020528060005260406000206000915054906101000a900460ff1681565b600e8181548110610a6f57600080fd5b90600052602060002090600502016000915090508060000154908060010154908060020154908060040154905084565b600260003373ffffffffffffffffffffffffffffffffffffffff1673ffffffffffffffffffffffffffffffffffffffff16815260200190815260200160002060009054906101000a900460ff16610af557600080fd5b60405180604001604052808381526020018281525060086000848152602001908152602001600020600082015181600001556020820151816001019080519060200190610b43929190611451565b509050505050565b6004818051602081018201805184825260208301602085012081835280955050505050506000915054906101000a900473ffffffffffffffffffffffffffffffffffffffff1681565b6005602052806000526040600020600091509050806000015490806001018054610bbd90611f5e565b80601f0160208091040260200160405190810160405280929190818152602001828054610be990611f5e565b8015610c365780601f10610c0b57610100808354040283529160200191610c36565b820191906000526020600020905b815481529060010190602001808311610c1957829003601f168201915b5050505050908060020160009054906101000a900473ffffffffffffffffffffffffffffffffffffffff1690806003018054610c7190611f5e565b80601f0160208091040260200160405190810160405280929190818152602001828054610c9d90611f5e565b8015610cea5780601f10610cbf57610100808354040283529160200191610cea565b820191906000526020600020905b815481529060010190602001808311610ccd57829003601f168201915b5050505050908060040160009054906101000a900460ff16905085565b600d8181548110610d1757600080fd5b90600052602060002090600502016000915090508060000154908060010154908060020154908060040154905084565b600c6020528060005260406000206000915090508060000154908060010160009054906101000a900473ffffffffffffffffffffffffffffffffffffffff16908060020154908060040154905084565b600260003373ffffffffffffffffffffffffffffffffffffffff1673ffffffffffffffffffffffffffffffffffffffff16815260200190815260200160002060009054906101000a900460ff16610ded57600080fd5b8060076000848152602001908152602001600020600201819055505050565b6007602052806000526040600020600091509050806000015490806001018054610e3590611f5e565b80601f0160208091040260200160405190810160405280929190818152602001828054610e6190611f5e565b8015610eae5780601f10610e8357610100808354040283529160200191610eae565b820191906000526020600020905b815481529060010190602001808311610e9157829003601f168201915b5050505050908060020154905083565b600260003373ffffffffffffffffffffffffffffffffffffffff1673ffffffffffffffffffffffffffffffffffffffff16815260200190815260200160002060009054906101000a900460ff1680610f5f5750600360003373ffffffffffffffffffffffffffffffffffffffff1673ffffffffffffffffffffffffffffffffffffffff16815260200190815260200160002060009054906101000a900460ff165b610f6857600080fd5b60006040518060a00160405280600a548152602001858152602001848152602001838152602001428152509050600a6000815480929190610fa890611d9f565b9190505550600d8190806001815401808255809150506001900390600052602060002090600502016000909190919091506000820151816000015560208201518160010155604082015181600201556060820151816003019080519060200190611013929190611404565b506080820151816004015550507fbafd3a52abf31b515771051f724d06b213d27f06f14926085c57c1fb89eab444600b5485858542604051611059959493929190611ea6565b60405180910390a150505050565b600260003373ffffffffffffffffffffffffffffffffffffffff1673ffffffffffffffffffffffffffffffffffffffff16815260200190815260200160002060009054906101000a900460ff166110bd57600080fd5b6001600360008373ffffffffffffffffffffffffffffffffffffffff1673ffffffffffffffffffffffffffffffffffffffff16815260200190815260200160002060006101000a81548160ff02191690831515021790555050565b600860205280600052604060002060009150905080600001549080600101805461114190611f5e565b80601f016020809104026020016040519081016040528092919081815260200182805461116d90611f5e565b80156111ba5780601f1061118f576101008083540402835291602001916111ba565b820191906000526020600020905b81548152906001019060200180831161119d57829003601f168201915b5050505050905082565b60066020528060005260406000206000915054906101000a900460ff1681565b600360003373ffffffffffffffffffffffffffffffffffffffff1673ffffffffffffffffffffffffffffffffffffffff16815260200190815260200160002060009054906101000a900460ff1661123a57600080fd5b60006040518060a001604052808681526020018581526020018473ffffffffffffffffffffffffffffffffffffffff16815260200183815260200160011515815250905080600560008781526020019081526020016000206000820151816000015560208201518160010190805190602001906112b8929190611451565b5060408201518160020160006101000a81548173ffffffffffffffffffffffffffffffffffffffff021916908373ffffffffffffffffffffffffffffffffffffffff160217905550606082015181600301908051906020019061131c929190611451565b5060808201518160040160006101000a81548160ff0219169083151502179055509050505050505050565b600260003373ffffffffffffffffffffffffffffffffffffffff1673ffffffffffffffffffffffffffffffffffffffff16815260200190815260200160002060009054906101000a900460ff1661139d57600080fd5b604051806060016040528084815260200183815260200182815250600760008581526020019081526020016000206000820151816000015560208201518160010190805190602001906113f1929190611451565b5060408201518160020155905050505050565b828054828255906000526020600020908101928215611440579160200282015b8281111561143f578251825591602001919060010190611424565b5b50905061144d91906114d7565b5090565b82805461145d90611f5e565b90600052602060002090601f01602090048101928261147f57600085556114c6565b82601f1061149857805160ff19168380011785556114c6565b828001600101855582156114c6579182015b828111156114c55782518255916020019190600101906114aa565b5b5090506114d391906114d7565b5090565b5b808211156114f05760008160009055506001016114d8565b5090565b6000604051905090565b600080fd5b600080fd5b600073ffffffffffffffffffffffffffffffffffffffff82169050919050565b600061153382611508565b9050919050565b61154381611528565b811461154e57600080fd5b50565b6000813590506115608161153a565b92915050565b60006020828403121561157c5761157b6114fe565b5b600061158a84828501611551565b91505092915050565b6000819050919050565b6115a681611593565b81146115b157600080fd5b50565b6000813590506115c38161159d565b92915050565b600080fd5b6000601f19601f8301169050919050565b7f4e487b7100000000000000000000000000000000000000000000000000000000600052604160045260246000fd5b611617826115ce565b810181811067ffffffffffffffff82111715611636576116356115df565b5b80604052505050565b60006116496114f4565b9050611655828261160e565b919050565b600067ffffffffffffffff821115611675576116746115df565b5b602082029050602081019050919050565b600080fd5b600061169e6116998461165a565b61163f565b905080838252602082019050602084028301858111156116c1576116c0611686565b5b835b818110156116ea57806116d688826115b4565b8452602084019350506020810190506116c3565b5050509392505050565b600082601f830112611709576117086115c9565b5b813561171984826020860161168b565b91505092915050565b60008060006060848603121561173b5761173a6114fe565b5b6000611749868287016115b4565b935050602061175a868287016115b4565b925050604084013567ffffffffffffffff81111561177b5761177a611503565b5b611787868287016116f4565b9150509250925092565b60008115159050919050565b6117a681611791565b82525050565b60006020820190506117c1600083018461179d565b92915050565b6117d081611593565b82525050565b60006020820190506117eb60008301846117c7565b92915050565b6000806000806080858703121561180b5761180a6114fe565b5b600061181987828801611551565b945050602061182a878288016115b4565b935050604085013567ffffffffffffffff81111561184b5761184a611503565b5b611857878288016116f4565b925050606085013567ffffffffffffffff81111561187857611877611503565b5b611884878288016116f4565b91505092959194509250565b6000602082840312156118a6576118a56114fe565b5b60006118b4848285016115b4565b91505092915050565b60006080820190506118d260008301876117c7565b6118df60208301866117c7565b6118ec60408301856117c7565b6118f960608301846117c7565b95945050505050565b600080fd5b600067ffffffffffffffff821115611922576119216115df565b5b61192b826115ce565b9050602081019050919050565b82818337600083830152505050565b600061195a61195584611907565b61163f565b90508281526020810184848401111561197657611975611902565b5b611981848285611938565b509392505050565b600082601f83011261199e5761199d6115c9565b5b81356119ae848260208601611947565b91505092915050565b600080604083850312156119ce576119cd6114fe565b5b60006119dc858286016115b4565b925050602083013567ffffffffffffffff8111156119fd576119fc611503565b5b611a0985828601611989565b9150509250929050565b600060208284031215611a2957611a286114fe565b5b600082013567ffffffffffffffff811115611a4757611a46611503565b5b611a5384828501611989565b91505092915050565b611a6581611528565b82525050565b6000602082019050611a806000830184611a5c565b92915050565b600081519050919050565b600082825260208201905092915050565b60005b83811015611ac0578082015181840152602081019050611aa5565b83811115611acf576000848401525b50505050565b6000611ae082611a86565b611aea8185611a91565b9350611afa818560208601611aa2565b611b03816115ce565b840191505092915050565b600060a082019050611b2360008301886117c7565b8181036020830152611b358187611ad5565b9050611b446040830186611a5c565b8181036060830152611b568185611ad5565b9050611b65608083018461179d565b9695505050505050565b6000608082019050611b8460008301876117c7565b611b916020830186611a5c565b611b9e60408301856117c7565b611bab60608301846117c7565b95945050505050565b60008060408385031215611bcb57611bca6114fe565b5b6000611bd9858286016115b4565b9250506020611bea858286016115b4565b9150509250929050565b6000606082019050611c0960008301866117c7565b8181036020830152611c1b8185611ad5565b9050611c2a60408301846117c7565b949350505050565b6000604082019050611c4760008301856117c7565b8181036020830152611c598184611ad5565b90509392505050565b60008060008060808587031215611c7c57611c7b6114fe565b5b6000611c8a878288016115b4565b945050602085013567ffffffffffffffff811115611cab57611caa611503565b5b611cb787828801611989565b9350506040611cc887828801611551565b925050606085013567ffffffffffffffff811115611ce957611ce8611503565b5b611cf587828801611989565b91505092959194509250565b600080600060608486031215611d1a57611d196114fe565b5b6000611d28868287016115b4565b935050602084013567ffffffffffffffff811115611d4957611d48611503565b5b611d5586828701611989565b9250506040611d66868287016115b4565b9150509250925092565b7f4e487b7100000000000000000000000000000000000000000000000000000000600052601160045260246000fd5b6000611daa82611593565b91507fffffffffffffffffffffffffffffffffffffffffffffffffffffffffffffffff821415611ddd57611ddc611d70565b5b600182019050919050565b600081519050919050565b600082825260208201905092915050565b6000819050602082019050919050565b611e1d81611593565b82525050565b6000611e2f8383611e14565b60208301905092915050565b6000602082019050919050565b6000611e5382611de8565b611e5d8185611df3565b9350611e6883611e04565b8060005b83811015611e99578151611e808882611e23565b9750611e8b83611e3b565b925050600181019050611e6c565b5085935050505092915050565b600060a082019050611ebb60008301886117c7565b611ec860208301876117c7565b611ed560408301866117c7565b8181036060830152611ee78185611e48565b9050611ef660808301846117c7565b9695505050505050565b7f4e487b7100000000000000000000000000000000000000000000000000000000600052603260045260246000fd5b7f4e487b7100000000000000000000000000000000000000000000000000000000600052602260045260246000fd5b60006002820490506001821680611f7657607f821691505b60208210811415611f8a57611f89611f2f565b5b50919050565b600081519050919050565b600082825260208201905092915050565b6000819050602082019050919050565b600082825260208201905092915050565b6000611fd882611a86565b611fe28185611fbc565b9350611ff2818560208601611aa2565b611ffb816115ce565b840191505092915050565b600060608301600083015161201e6000860182611e14565b50602083015184820360208601526120368282611fcd565b915050604083015161204b6040860182611e14565b508091505092915050565b60006120628383612006565b905092915050565b6000602082019050919050565b600061208282611f90565b61208c8185611f9b565b93508360208202850161209e85611fac565b8060005b858110156120da57848403895281516120bb8582612056565b94506120c68361206a565b925060208a019950506001810190506120a2565b50829750879550505050505092915050565b600060a08201905061210160008301886117c7565b61210e6020830187611a5c565b61211b60408301866117c7565b818103606083015261212d8185612077565b905061213c60808301846117c7565b969550505050505056fea26469706673582212200b4fc9367675136d20e7572ab7027447a834d6915176b7886c4d1a16862f56a164736f6c634300080a0033",
  "immutableReferences": {},
  "source": "\r\n// pragma solidity >=0.7.0 <0.9.0;\r\n\r\n// // ToDo:-\r\n// //[X] AddStateAdmin.\r\n// //[X] AddDistrictAdmin.\r\n// //[X] AddBags\r\n// //[X] AddShops.\r\n// //[] RemoveShops.\r\n// //[X] mapAadhar_to_Metamask.\r\n// //[] GetListofShopIds.\r\n// //[] GetListofDistrictIds.\r\n// //[X] AddItems.\r\n// //[X] TransferBags.\r\n// //[X] ReceivedBags.\r\n// //[X] makeOrder.\r\n// //[X] AddConsumers.\r\n// //[X] CheckValidCustomer.\r\n// //[] Get Shop Details.\r\n// //[] Get List of Districts.\r\n// //[] Get List of Shops.\r\n// //[] List of Orders.  \r\n\r\n// contract PDS {\r\n\r\n//     struct _Shop{\r\n//         uint256 id;\r\n//         string name;\r\n//         address account;\r\n//         string location;\r\n//         bool exists;\r\n//     }\r\n\r\n//     struct _ItemsAvailable{\r\n//         uint256 _id;\r\n//         string name;\r\n//         uint256 price;\r\n//     }\r\n\r\n//     struct _Bag{\r\n//         uint256 id;\r\n//         string item;\r\n//     }\r\n\r\n//     struct _Transfer{\r\n//         uint256 id;\r\n//         uint256 fromId;\r\n//         uint256 toId;\r\n//         uint256[] bagIds;\r\n//         uint256 timestamp;\r\n//     }\r\n\r\n//     struct _ItemConsumed{\r\n//         uint256 _id;\r\n//         uint256 quantity;\r\n//     }\r\n\r\n//     struct _Order{\r\n//         uint256 id;\r\n//         address customerId;\r\n//         uint256 shopId;\r\n//         //item_id=>quantity taken\r\n//         mapping(uint256=>uint256)itemsTaken;\r\n//         uint256 timestamp;\r\n//     }\r\n\r\n//     //events\r\n//     event Transfered(\r\n//         uint256 id,\r\n//         uint256 fromId,\r\n//         uint256 toId,\r\n//         uint256[] bagIds,\r\n//         uint256 timestamp\r\n//     );\r\n//     event Received(\r\n//         uint256 id,\r\n//         uint256 fromId,\r\n//         uint256 toId,\r\n//         uint256[] bagIds,\r\n//         uint256 timestamp\r\n//     );\r\n\r\n//     //Users memory\r\n//     address creator;\r\n//     uint256 public quantityOfBag;\r\n\r\n//     mapping (address=>bool) public stateAdmin;\r\n//     mapping (address=>bool) public districtAdmin;\r\n//     //Used for Login Purpose.\r\n//     mapping (string=>address) public AadharLinked;\r\n\r\n//     mapping (uint256=>_Shop) public shops;\r\n//     mapping (address=> bool) public consumer;\r\n//     mapping (uint256 => _ItemsAvailable) public items;\r\n//     mapping (uint256 => _Bag) public bags;\r\n//     uint256 ordersCount;\r\n//     uint256 transfersCount;\r\n//     uint256 receivedCount;\r\n//     mapping (uint256=>_Order) public orders;\r\n\r\n//     _Transfer[] public transferHistory;\r\n//     _Transfer[] public receivedHistory;\r\n\r\n//     constructor(uint256 _quantityOfBag){\r\n//         creator = msg.sender;\r\n//         quantityOfBag = _quantityOfBag;\r\n//     }\r\n\r\n//     //Adding Users\r\n//     function addStateAdmins(address _user) public{\r\n//         require(msg.sender == creator);\r\n//         stateAdmin[_user]=true;\r\n//     }\r\n//     function addDistrictAdmins(address _user) public{\r\n//         require(stateAdmin[msg.sender]);\r\n//         districtAdmin[_user]=true;\r\n//     }\r\n\r\n//     function addShops(uint256 _id, string memory _name, address _recipientAddress,string memory _location) public{\r\n//         require(districtAdmin[msg.sender]);\r\n//         _Shop memory shop = _Shop(_id, _name, _recipientAddress,_location,true);\r\n//         shops[_id]=shop;\r\n//     }\r\n//     function addConsumer(address _user) public {\r\n//         require(districtAdmin[msg.sender]);\r\n//         consumer[_user]=true;\r\n//     }\r\n\r\n//     function addBags(uint256 _id, string memory _item) public{\r\n//         require(stateAdmin[msg.sender]);\r\n//         bags[_id]=_Bag(_id,_item);\r\n//     }\r\n    \r\n//     function transferedBags(uint256 _fromId, uint256 _toId,uint256[] memory _bagIds)public {\r\n//         require(stateAdmin[msg.sender]||districtAdmin[msg.sender]);\r\n//         _Transfer memory obj = _Transfer(transfersCount,_fromId,_toId,_bagIds,block.timestamp);\r\n//         transfersCount++;\r\n//         transferHistory.push(obj);\r\n//         emit Transfered(receivedCount,_fromId,_toId,_bagIds,block.timestamp);\r\n//     }\r\n//     function receivedBags(uint256 _fromId, uint256 _toId,uint256[] memory _bagIds)public {\r\n//         require(districtAdmin[msg.sender]||shops[_toId].exists);\r\n//         _Transfer memory obj = _Transfer(receivedCount,_fromId,_toId,_bagIds,block.timestamp);\r\n//         receivedCount++;\r\n//         receivedHistory.push(obj);\r\n//         emit Received(receivedCount,_fromId,_toId,_bagIds,block.timestamp);\r\n//     }\r\n\r\n//     function orderMade(address _customer,uint256 _shopId,uint256[] memory _itemIds,uint256[] memory _quantities) public{\r\n//         require(shops[_shopId].exists);\r\n//         _Order storage order = orders[ordersCount];\r\n//         order.id = ordersCount;\r\n//         order.customerId=_customer;\r\n//         order.shopId=_shopId;\r\n//         order.timestamp = block.timestamp;\r\n//         uint n = _itemIds.length;\r\n//         for(uint i=0;i<n;i++){\r\n//             order.itemsTaken[_itemIds[i]]=_quantities[i];\r\n//         }\r\n\r\n//         ordersCount++;\r\n\r\n//     }\r\n\r\n//     // function getShopDetails(uint256 _id)\r\n\r\n// }\r\n\r\n// SPDX-License-Identifier: GPL-3.0\r\n\r\npragma solidity >=0.7.0 <0.9.0;\r\n\r\n// ToDo:-\r\n//[X] AddStateAdmin.\r\n//[X] AddDistrictAdmin.\r\n//[X] AddBags\r\n//[X] AddShops.\r\n//[X] RemoveShops.\r\n//[X] mapAadhar_to_Metamask.\r\n//[X] AddItems.\r\n//[X] TransferBags.\r\n//[X] ReceivedBags.\r\n//[X] makeOrder.\r\n//[X] AddConsumers.\r\n//[X] CheckValidCustomer.\r\n//[X] Get Shop Details.\r\n//[X] List of Orders.  \r\n\r\ncontract PDS {\r\n\r\n    struct _Shop{\r\n        uint256 id;\r\n        string name;\r\n        address account;\r\n        string location;\r\n        bool exists;\r\n    }\r\n\r\n    struct _ItemsAvailable{\r\n        uint256 _id;\r\n        string name;\r\n        uint256 price;\r\n    }\r\n\r\n    struct _Bag{\r\n        uint256 id;\r\n        string item;\r\n    }\r\n\r\n    struct _Transfer{\r\n        uint256 id;\r\n        uint256 fromId;\r\n        uint256 toId;\r\n        uint256[] bagIds;\r\n        uint256 timestamp;\r\n    }\r\n\r\n    struct _Order{\r\n        uint256 id;\r\n        address customerId;\r\n        uint256 shopId;\r\n        //item_id=>quantity taken\r\n        mapping(uint256=>uint256)itemsTaken;\r\n        uint256 timestamp;\r\n    }\r\n\r\n    //events\r\n    event Transfered(\r\n        uint256 id,\r\n        uint256 fromId,\r\n        uint256 toId,\r\n        uint256[] bagIds,\r\n        uint256 timestamp\r\n    );\r\n    event Received(\r\n        uint256 id,\r\n        uint256 fromId,\r\n        uint256 toId,\r\n        uint256[] bagIds,\r\n        uint256 timestamp\r\n    );\r\n    event Order(\r\n        uint256 id,\r\n        address customerId,\r\n        uint256 shopId,\r\n        //item_id=>quantity taken\r\n        _ItemsAvailable[] itemsTaken,\r\n        uint256 timestamp\r\n    );\r\n\r\n    //Users memory\r\n    address creator;\r\n    uint256 public quantityOfBag;\r\n\r\n    mapping (address=>bool) public stateAdmin;\r\n    mapping (address=>bool) public districtAdmin;\r\n    //Used for Login Purpose.\r\n    mapping (string=>address) public AadharLinked;\r\n\r\n    mapping (uint256=>_Shop) public shops;\r\n    mapping (address=> bool) public consumer;\r\n    mapping (uint256 => _ItemsAvailable) public items;\r\n    mapping (uint256 => _Bag) public bags;\r\n    uint256 ordersCount;\r\n    uint256 transfersCount;\r\n    uint256 receivedCount;\r\n    mapping (uint256=>_Order) public orders;\r\n\r\n    _Transfer[] public transferHistory;\r\n    _Transfer[] public receivedHistory;\r\n\r\n    constructor(uint256 _quantityOfBag){\r\n        creator = msg.sender;\r\n        quantityOfBag = _quantityOfBag;\r\n    }\r\n\r\n    //Adding Users\r\n    function addStateAdmins(address _user) public{\r\n        require(msg.sender == creator);\r\n        stateAdmin[_user]=true;\r\n    }\r\n    function addDistrictAdmins(address _user) public{\r\n        require(stateAdmin[msg.sender]);\r\n        districtAdmin[_user]=true;\r\n    }\r\n\r\n    function addShops(uint256 _id, string memory _name, address _recipientAddress,string memory _location) public{\r\n        require(districtAdmin[msg.sender]);\r\n        _Shop memory shop = _Shop(_id, _name, _recipientAddress,_location,true);\r\n        shops[_id]=shop;\r\n    }\r\n    function addConsumer(address _user) public {\r\n        require(districtAdmin[msg.sender]);\r\n        consumer[_user]=true;\r\n    }\r\n    function addBags(uint256 _id, string memory _item) public{\r\n        require(stateAdmin[msg.sender]);\r\n        bags[_id]=_Bag(_id,_item);\r\n    }\r\n    function addItems(uint256 _id,string memory _name,uint256 _price) public{\r\n        require(stateAdmin[msg.sender]);\r\n        items[_id]=_ItemsAvailable(_id,_name,_price);\r\n    }\r\n    function setItems(uint256 _id,uint256 _price) public{\r\n        require(stateAdmin[msg.sender]);\r\n        items[_id].price=_price;      \r\n    }\r\n    function transferedBags(uint256 _fromId, uint256 _toId,uint256[] memory _bagIds)public {\r\n        require(stateAdmin[msg.sender]||districtAdmin[msg.sender]);\r\n        _Transfer memory obj = _Transfer(transfersCount,_fromId,_toId,_bagIds,block.timestamp);\r\n        transfersCount++;\r\n        transferHistory.push(obj);\r\n        emit Transfered(receivedCount,_fromId,_toId,_bagIds,block.timestamp);\r\n    }\r\n    function receivedBags(uint256 _fromId, uint256 _toId,uint256[] memory _bagIds)public {\r\n        require(districtAdmin[msg.sender]||shops[_toId].exists);\r\n        _Transfer memory obj = _Transfer(receivedCount,_fromId,_toId,_bagIds,block.timestamp);\r\n        receivedCount++;\r\n        receivedHistory.push(obj);\r\n        emit Received(receivedCount,_fromId,_toId,_bagIds,block.timestamp);\r\n    }\r\n\r\n    function orderMade(address _customer,uint256 _shopId,uint256[] memory _itemIds,uint256[] memory _quantities) public{\r\n        require(shops[_shopId].exists);\r\n        _Order storage order = orders[ordersCount];\r\n        order.id = ordersCount;\r\n        order.customerId=_customer;\r\n        order.shopId=_shopId;\r\n        order.timestamp = block.timestamp;\r\n\r\n        uint n = _itemIds.length;\r\n        _ItemsAvailable[] memory itemsV;\r\n        for(uint i=0;i<n;i++){\r\n            order.itemsTaken[_itemIds[i]]=_quantities[i];\r\n            _ItemsAvailable memory temp = items[_itemIds[i]];\r\n            itemsV[i]=_ItemsAvailable(temp._id,temp.name,temp.price);\r\n        }\r\n        ordersCount++;\r\n        emit Order(order.id,order.customerId,order.shopId,itemsV,order.timestamp);\r\n\r\n    }\r\n\r\n    // function getShopDetails(uint256 _id)\r\n\r\n}",
  "sourcePath": "D:\\Web-Projects\\BlockChain-Projects\\dummy\\src\\contracts\\PDS.sol",
  "compiler": {
    "name": "solc",
    "version": "0.8.10+commit.fc410830.Emscripten.clang"
  },
  "schemaVersion": "3.4.4",
  "updatedAt": "2022-01-07T13:54:33.966Z",
  "networkType": "ethereum",
  "devdoc": {
    "kind": "dev",
    "methods": {},
    "version": 1
  },
  "userdoc": {
    "kind": "user",
    "methods": {},
    "version": 1
  }
}