{
  "contractName": "PDS",
  "abi": [
    {
      "inputs": [
        {
          "internalType": "uint256",
          "name": "_quantityOfBag",
          "type": "uint256"
        }
      ],
      "stateMutability": "nonpayable",
      "type": "constructor"
    },
    {
      "anonymous": false,
      "inputs": [
        {
          "indexed": false,
          "internalType": "uint256",
          "name": "id",
          "type": "uint256"
        },
        {
          "indexed": false,
          "internalType": "address",
          "name": "customerAddress",
          "type": "address"
        },
        {
          "indexed": false,
          "internalType": "uint256",
          "name": "shopId",
          "type": "uint256"
        },
        {
          "indexed": false,
          "internalType": "uint256[]",
          "name": "itemIds",
          "type": "uint256[]"
        },
        {
          "indexed": false,
          "internalType": "uint256[]",
          "name": "quantities",
          "type": "uint256[]"
        },
        {
          "indexed": false,
          "internalType": "uint256",
          "name": "timestamp",
          "type": "uint256"
        }
      ],
      "name": "Order",
      "type": "event"
    },
    {
      "anonymous": false,
      "inputs": [
        {
          "indexed": false,
          "internalType": "uint256",
          "name": "id",
          "type": "uint256"
        },
        {
          "indexed": false,
          "internalType": "uint256",
          "name": "fromId",
          "type": "uint256"
        },
        {
          "indexed": false,
          "internalType": "uint256",
          "name": "toId",
          "type": "uint256"
        },
        {
          "indexed": false,
          "internalType": "uint256[]",
          "name": "bagIds",
          "type": "uint256[]"
        },
        {
          "indexed": false,
          "internalType": "uint256",
          "name": "timestamp",
          "type": "uint256"
        }
      ],
      "name": "Received",
      "type": "event"
    },
    {
      "anonymous": false,
      "inputs": [
        {
          "indexed": false,
          "internalType": "uint256",
          "name": "id",
          "type": "uint256"
        },
        {
          "indexed": false,
          "internalType": "uint256",
          "name": "fromId",
          "type": "uint256"
        },
        {
          "indexed": false,
          "internalType": "uint256",
          "name": "toId",
          "type": "uint256"
        },
        {
          "indexed": false,
          "internalType": "uint256[]",
          "name": "bagIds",
          "type": "uint256[]"
        },
        {
          "indexed": false,
          "internalType": "uint256",
          "name": "timestamp",
          "type": "uint256"
        }
      ],
      "name": "Transfered",
      "type": "event"
    },
    {
      "inputs": [
        {
          "internalType": "string",
          "name": "",
          "type": "string"
        }
      ],
      "name": "AadharLinked",
      "outputs": [
        {
          "internalType": "address",
          "name": "",
          "type": "address"
        }
      ],
      "stateMutability": "view",
      "type": "function",
      "constant": true
    },
    {
      "inputs": [
        {
          "internalType": "uint256",
          "name": "",
          "type": "uint256"
        }
      ],
      "name": "bags",
      "outputs": [
        {
          "internalType": "uint256",
          "name": "id",
          "type": "uint256"
        },
        {
          "internalType": "string",
          "name": "item",
          "type": "string"
        }
      ],
      "stateMutability": "view",
      "type": "function",
      "constant": true
    },
    {
      "inputs": [
        {
          "internalType": "address",
          "name": "",
          "type": "address"
        }
      ],
      "name": "consumer",
      "outputs": [
        {
          "internalType": "bool",
          "name": "",
          "type": "bool"
        }
      ],
      "stateMutability": "view",
      "type": "function",
      "constant": true
    },
    {
      "inputs": [
        {
          "internalType": "address",
          "name": "",
          "type": "address"
        }
      ],
      "name": "districtAdmin",
      "outputs": [
        {
          "internalType": "bool",
          "name": "",
          "type": "bool"
        }
      ],
      "stateMutability": "view",
      "type": "function",
      "constant": true
    },
    {
      "inputs": [
        {
          "internalType": "uint256",
          "name": "",
          "type": "uint256"
        }
      ],
      "name": "items",
      "outputs": [
        {
          "internalType": "uint256",
          "name": "_id",
          "type": "uint256"
        },
        {
          "internalType": "string",
          "name": "name",
          "type": "string"
        },
        {
          "internalType": "uint256",
          "name": "price",
          "type": "uint256"
        }
      ],
      "stateMutability": "view",
      "type": "function",
      "constant": true
    },
    {
      "inputs": [
        {
          "internalType": "uint256",
          "name": "",
          "type": "uint256"
        }
      ],
      "name": "orders",
      "outputs": [
        {
          "internalType": "uint256",
          "name": "id",
          "type": "uint256"
        },
        {
          "internalType": "address",
          "name": "customerId",
          "type": "address"
        },
        {
          "internalType": "uint256",
          "name": "shopId",
          "type": "uint256"
        },
        {
          "internalType": "uint256",
          "name": "timestamp",
          "type": "uint256"
        }
      ],
      "stateMutability": "view",
      "type": "function",
      "constant": true
    },
    {
      "inputs": [],
      "name": "quantityOfBag",
      "outputs": [
        {
          "internalType": "uint256",
          "name": "",
          "type": "uint256"
        }
      ],
      "stateMutability": "view",
      "type": "function",
      "constant": true
    },
    {
      "inputs": [
        {
          "internalType": "uint256",
          "name": "",
          "type": "uint256"
        }
      ],
      "name": "receivedHistory",
      "outputs": [
        {
          "internalType": "uint256",
          "name": "id",
          "type": "uint256"
        },
        {
          "internalType": "uint256",
          "name": "fromId",
          "type": "uint256"
        },
        {
          "internalType": "uint256",
          "name": "toId",
          "type": "uint256"
        },
        {
          "internalType": "uint256",
          "name": "timestamp",
          "type": "uint256"
        }
      ],
      "stateMutability": "view",
      "type": "function",
      "constant": true
    },
    {
      "inputs": [
        {
          "internalType": "uint256",
          "name": "",
          "type": "uint256"
        }
      ],
      "name": "shops",
      "outputs": [
        {
          "internalType": "uint256",
          "name": "id",
          "type": "uint256"
        },
        {
          "internalType": "string",
          "name": "name",
          "type": "string"
        },
        {
          "internalType": "address",
          "name": "account",
          "type": "address"
        },
        {
          "internalType": "string",
          "name": "location",
          "type": "string"
        },
        {
          "internalType": "bool",
          "name": "exists",
          "type": "bool"
        }
      ],
      "stateMutability": "view",
      "type": "function",
      "constant": true
    },
    {
      "inputs": [
        {
          "internalType": "address",
          "name": "",
          "type": "address"
        }
      ],
      "name": "stateAdmin",
      "outputs": [
        {
          "internalType": "bool",
          "name": "",
          "type": "bool"
        }
      ],
      "stateMutability": "view",
      "type": "function",
      "constant": true
    },
    {
      "inputs": [
        {
          "internalType": "uint256",
          "name": "",
          "type": "uint256"
        }
      ],
      "name": "transferHistory",
      "outputs": [
        {
          "internalType": "uint256",
          "name": "id",
          "type": "uint256"
        },
        {
          "internalType": "uint256",
          "name": "fromId",
          "type": "uint256"
        },
        {
          "internalType": "uint256",
          "name": "toId",
          "type": "uint256"
        },
        {
          "internalType": "uint256",
          "name": "timestamp",
          "type": "uint256"
        }
      ],
      "stateMutability": "view",
      "type": "function",
      "constant": true
    },
    {
      "inputs": [
        {
          "internalType": "address",
          "name": "_user",
          "type": "address"
        }
      ],
      "name": "addStateAdmins",
      "outputs": [],
      "stateMutability": "nonpayable",
      "type": "function"
    },
    {
      "inputs": [
        {
          "internalType": "address",
          "name": "_user",
          "type": "address"
        }
      ],
      "name": "addDistrictAdmins",
      "outputs": [],
      "stateMutability": "nonpayable",
      "type": "function"
    },
    {
      "inputs": [
        {
          "internalType": "uint256",
          "name": "_id",
          "type": "uint256"
        },
        {
          "internalType": "string",
          "name": "_name",
          "type": "string"
        },
        {
          "internalType": "address",
          "name": "_recipientAddress",
          "type": "address"
        },
        {
          "internalType": "string",
          "name": "_location",
          "type": "string"
        }
      ],
      "name": "addShops",
      "outputs": [],
      "stateMutability": "nonpayable",
      "type": "function"
    },
    {
      "inputs": [
        {
          "internalType": "address",
          "name": "_user",
          "type": "address"
        }
      ],
      "name": "addConsumer",
      "outputs": [],
      "stateMutability": "nonpayable",
      "type": "function"
    },
    {
      "inputs": [
        {
          "internalType": "uint256",
          "name": "_id",
          "type": "uint256"
        },
        {
          "internalType": "string",
          "name": "_item",
          "type": "string"
        }
      ],
      "name": "addBags",
      "outputs": [],
      "stateMutability": "nonpayable",
      "type": "function"
    },
    {
      "inputs": [
        {
          "internalType": "uint256",
          "name": "_id",
          "type": "uint256"
        },
        {
          "internalType": "string",
          "name": "_name",
          "type": "string"
        },
        {
          "internalType": "uint256",
          "name": "_price",
          "type": "uint256"
        }
      ],
      "name": "addItems",
      "outputs": [],
      "stateMutability": "nonpayable",
      "type": "function"
    },
    {
      "inputs": [
        {
          "internalType": "uint256",
          "name": "_id",
          "type": "uint256"
        },
        {
          "internalType": "uint256",
          "name": "_price",
          "type": "uint256"
        }
      ],
      "name": "setItems",
      "outputs": [],
      "stateMutability": "nonpayable",
      "type": "function"
    },
    {
      "inputs": [
        {
          "internalType": "uint256",
          "name": "_fromId",
          "type": "uint256"
        },
        {
          "internalType": "uint256",
          "name": "_toId",
          "type": "uint256"
        },
        {
          "internalType": "uint256[]",
          "name": "_bagIds",
          "type": "uint256[]"
        }
      ],
      "name": "transferedBags",
      "outputs": [],
      "stateMutability": "nonpayable",
      "type": "function"
    },
    {
      "inputs": [
        {
          "internalType": "uint256",
          "name": "_fromId",
          "type": "uint256"
        },
        {
          "internalType": "uint256",
          "name": "_toId",
          "type": "uint256"
        },
        {
          "internalType": "uint256[]",
          "name": "_bagIds",
          "type": "uint256[]"
        }
      ],
      "name": "receivedBags",
      "outputs": [],
      "stateMutability": "nonpayable",
      "type": "function"
    },
    {
      "inputs": [
        {
          "internalType": "address",
          "name": "_customer",
          "type": "address"
        },
        {
          "internalType": "uint256",
          "name": "_shopId",
          "type": "uint256"
        },
        {
          "internalType": "uint256[]",
          "name": "_itemIds",
          "type": "uint256[]"
        },
        {
          "internalType": "uint256[]",
          "name": "_quantities",
          "type": "uint256[]"
        }
      ],
      "name": "orderMade",
      "outputs": [],
      "stateMutability": "nonpayable",
      "type": "function"
    }
  ],
  "bytecode": "0x60806040523480156200001157600080fd5b50604051620020b3380380620020b38339818101604052810190620000379190620000c5565b336000806101000a81548173ffffffffffffffffffffffffffffffffffffffff021916908373ffffffffffffffffffffffffffffffffffffffff1602179055508060018190555050620000f7565b600080fd5b6000819050919050565b6200009f816200008a565b8114620000ab57600080fd5b50565b600081519050620000bf8162000094565b92915050565b600060208284031215620000de57620000dd62000085565b5b6000620000ee84828501620000ae565b91505092915050565b611fac80620001076000396000f3fe608060405234801561001057600080fd5b50600436106101375760003560e01c8063713aca74116100b8578063c3ecfe911161007c578063c3ecfe9114610391578063c9ee7121146103ad578063dda4df4e146103c9578063de69b6ac146103fa578063f05ce1241461042a578063f4e15ba81461044657610137565b8063713aca74146102a9578063816c99de146102dd578063a85c38ef14610310578063b87c9f8914610343578063bfb231d21461035f57610137565b806319f46aad116100ff57806319f46aad146101de5780631bba6e59146101fa5780632d9984011461022a5780635e0e49ec1461025d5780636ba200881461027957610137565b806301db6db21461013c57806302d4afc314610158578063058e7cd1146101745780630985b056146101a4578063112940f9146101c2575b600080fd5b6101566004803603810190610151919061150c565b610462565b005b610172600480360381019061016d91906116c8565b610515565b005b61018e6004803603810190610189919061150c565b610695565b60405161019b9190611752565b60405180910390f35b6101ac6106b5565b6040516101b9919061177c565b60405180910390f35b6101dc60048036038101906101d7919061150c565b6106bb565b005b6101f860048036038101906101f39190611797565b61076c565b005b610214600480360381019061020f919061150c565b6109d5565b6040516102219190611752565b60405180910390f35b610244600480360381019061023f9190611836565b6109f5565b6040516102549493929190611863565b60405180910390f35b6102776004803603810190610272919061195d565b610a35565b005b610293600480360381019061028e91906119b9565b610ae1565b6040516102a09190611a11565b60405180910390f35b6102c360048036038101906102be9190611836565b610b2a565b6040516102d4959493929190611ab4565b60405180910390f35b6102f760048036038101906102f29190611836565b610c9d565b6040516103079493929190611863565b60405180910390f35b61032a60048036038101906103259190611836565b610cdd565b60405161033a9493929190611b15565b60405180910390f35b61035d60048036038101906103589190611b5a565b610d3d565b005b61037960048036038101906103749190611836565b610db2565b60405161038893929190611b9a565b60405180910390f35b6103ab60048036038101906103a691906116c8565b610e64565b005b6103c760048036038101906103c2919061150c565b61100d565b005b6103e360048036038101906103de9190611836565b6110be565b6040516103f1929190611bd8565b60405180910390f35b610414600480360381019061040f919061150c565b61116a565b6040516104219190611752565b60405180910390f35b610444600480360381019061043f9190611c08565b61118a565b005b610460600480360381019061045b9190611ca7565b6112ed565b005b60008054906101000a900473ffffffffffffffffffffffffffffffffffffffff1673ffffffffffffffffffffffffffffffffffffffff163373ffffffffffffffffffffffffffffffffffffffff16146104ba57600080fd5b6001600260008373ffffffffffffffffffffffffffffffffffffffff1673ffffffffffffffffffffffffffffffffffffffff16815260200190815260200160002060006101000a81548160ff02191690831515021790555050565b600360003373ffffffffffffffffffffffffffffffffffffffff1673ffffffffffffffffffffffffffffffffffffffff16815260200190815260200160002060009054906101000a900460ff168061058d57506005600083815260200190815260200160002060040160009054906101000a900460ff165b61059657600080fd5b60006040518060a00160405280600b548152602001858152602001848152602001838152602001428152509050600b60008154809291906105d690611d45565b9190505550600e81908060018154018082558091505060019003906000526020600020906005020160009091909190915060008201518160000155602082015181600101556040820151816002015560608201518160030190805190602001906106419291906113aa565b506080820151816004015550507f2d5057fc6cbd73c0b6c2689c9ea36c987ca0421fa63aab4d276b05128132901d600b5485858542604051610687959493929190611e4c565b60405180910390a150505050565b60026020528060005260406000206000915054906101000a900460ff1681565b60015481565b600360003373ffffffffffffffffffffffffffffffffffffffff1673ffffffffffffffffffffffffffffffffffffffff16815260200190815260200160002060009054906101000a900460ff1661071157600080fd5b6001600660008373ffffffffffffffffffffffffffffffffffffffff1673ffffffffffffffffffffffffffffffffffffffff16815260200190815260200160002060006101000a81548160ff02191690831515021790555050565b6005600084815260200190815260200160002060040160009054906101000a900460ff1680156107fd57503373ffffffffffffffffffffffffffffffffffffffff166005600085815260200190815260200160002060020160009054906101000a900473ffffffffffffffffffffffffffffffffffffffff1673ffffffffffffffffffffffffffffffffffffffff16145b80156108525750600660008573ffffffffffffffffffffffffffffffffffffffff1673ffffffffffffffffffffffffffffffffffffffff16815260200190815260200160002060009054906101000a900460ff165b61085b57600080fd5b60006040518060c0016040528060095481526020018673ffffffffffffffffffffffffffffffffffffffff168152602001858152602001848152602001838152602001428152509050600c8190806001815401808255809150506001900390600052602060002090600602016000909190919091506000820151816000015560208201518160010160006101000a81548173ffffffffffffffffffffffffffffffffffffffff021916908373ffffffffffffffffffffffffffffffffffffffff1602179055506040820151816002015560608201518160030190805190602001906109479291906113aa565b5060808201518160040190805190602001906109649291906113aa565b5060a0820151816005015550506009600081548092919061098490611d45565b91905055507f5be3171721c8dfbcaff1992ea177a3efdc003ead98dbe5c28c9cc4711c100f69816000015186868686426040516109c696959493929190611ea6565b60405180910390a15050505050565b60036020528060005260406000206000915054906101000a900460ff1681565b600e8181548110610a0557600080fd5b90600052602060002090600502016000915090508060000154908060010154908060020154908060040154905084565b600260003373ffffffffffffffffffffffffffffffffffffffff1673ffffffffffffffffffffffffffffffffffffffff16815260200190815260200160002060009054906101000a900460ff16610a8b57600080fd5b60405180604001604052808381526020018281525060086000848152602001908152602001600020600082015181600001556020820151816001019080519060200190610ad99291906113f7565b509050505050565b6004818051602081018201805184825260208301602085012081835280955050505050506000915054906101000a900473ffffffffffffffffffffffffffffffffffffffff1681565b6005602052806000526040600020600091509050806000015490806001018054610b5390611f44565b80601f0160208091040260200160405190810160405280929190818152602001828054610b7f90611f44565b8015610bcc5780601f10610ba157610100808354040283529160200191610bcc565b820191906000526020600020905b815481529060010190602001808311610baf57829003601f168201915b5050505050908060020160009054906101000a900473ffffffffffffffffffffffffffffffffffffffff1690806003018054610c0790611f44565b80601f0160208091040260200160405190810160405280929190818152602001828054610c3390611f44565b8015610c805780601f10610c5557610100808354040283529160200191610c80565b820191906000526020600020905b815481529060010190602001808311610c6357829003601f168201915b5050505050908060040160009054906101000a900460ff16905085565b600d8181548110610cad57600080fd5b90600052602060002090600502016000915090508060000154908060010154908060020154908060040154905084565b600c8181548110610ced57600080fd5b90600052602060002090600602016000915090508060000154908060010160009054906101000a900473ffffffffffffffffffffffffffffffffffffffff16908060020154908060050154905084565b600260003373ffffffffffffffffffffffffffffffffffffffff1673ffffffffffffffffffffffffffffffffffffffff16815260200190815260200160002060009054906101000a900460ff16610d9357600080fd5b8060076000848152602001908152602001600020600201819055505050565b6007602052806000526040600020600091509050806000015490806001018054610ddb90611f44565b80601f0160208091040260200160405190810160405280929190818152602001828054610e0790611f44565b8015610e545780601f10610e2957610100808354040283529160200191610e54565b820191906000526020600020905b815481529060010190602001808311610e3757829003601f168201915b5050505050908060020154905083565b600260003373ffffffffffffffffffffffffffffffffffffffff1673ffffffffffffffffffffffffffffffffffffffff16815260200190815260200160002060009054906101000a900460ff1680610f055750600360003373ffffffffffffffffffffffffffffffffffffffff1673ffffffffffffffffffffffffffffffffffffffff16815260200190815260200160002060009054906101000a900460ff165b610f0e57600080fd5b60006040518060a00160405280600a548152602001858152602001848152602001838152602001428152509050600a6000815480929190610f4e90611d45565b9190505550600d8190806001815401808255809150506001900390600052602060002090600502016000909190919091506000820151816000015560208201518160010155604082015181600201556060820151816003019080519060200190610fb99291906113aa565b506080820151816004015550507fbafd3a52abf31b515771051f724d06b213d27f06f14926085c57c1fb89eab444600b5485858542604051610fff959493929190611e4c565b60405180910390a150505050565b600260003373ffffffffffffffffffffffffffffffffffffffff1673ffffffffffffffffffffffffffffffffffffffff16815260200190815260200160002060009054906101000a900460ff1661106357600080fd5b6001600360008373ffffffffffffffffffffffffffffffffffffffff1673ffffffffffffffffffffffffffffffffffffffff16815260200190815260200160002060006101000a81548160ff02191690831515021790555050565b60086020528060005260406000206000915090508060000154908060010180546110e790611f44565b80601f016020809104026020016040519081016040528092919081815260200182805461111390611f44565b80156111605780601f1061113557610100808354040283529160200191611160565b820191906000526020600020905b81548152906001019060200180831161114357829003601f168201915b5050505050905082565b60066020528060005260406000206000915054906101000a900460ff1681565b600360003373ffffffffffffffffffffffffffffffffffffffff1673ffffffffffffffffffffffffffffffffffffffff16815260200190815260200160002060009054906101000a900460ff166111e057600080fd5b60006040518060a001604052808681526020018581526020018473ffffffffffffffffffffffffffffffffffffffff168152602001838152602001600115158152509050806005600087815260200190815260200160002060008201518160000155602082015181600101908051906020019061125e9291906113f7565b5060408201518160020160006101000a81548173ffffffffffffffffffffffffffffffffffffffff021916908373ffffffffffffffffffffffffffffffffffffffff16021790555060608201518160030190805190602001906112c29291906113f7565b5060808201518160040160006101000a81548160ff0219169083151502179055509050505050505050565b600260003373ffffffffffffffffffffffffffffffffffffffff1673ffffffffffffffffffffffffffffffffffffffff16815260200190815260200160002060009054906101000a900460ff1661134357600080fd5b604051806060016040528084815260200183815260200182815250600760008581526020019081526020016000206000820151816000015560208201518160010190805190602001906113979291906113f7565b5060408201518160020155905050505050565b8280548282559060005260206000209081019282156113e6579160200282015b828111156113e55782518255916020019190600101906113ca565b5b5090506113f3919061147d565b5090565b82805461140390611f44565b90600052602060002090601f016020900481019282611425576000855561146c565b82601f1061143e57805160ff191683800117855561146c565b8280016001018555821561146c579182015b8281111561146b578251825591602001919060010190611450565b5b509050611479919061147d565b5090565b5b8082111561149657600081600090555060010161147e565b5090565b6000604051905090565b600080fd5b600080fd5b600073ffffffffffffffffffffffffffffffffffffffff82169050919050565b60006114d9826114ae565b9050919050565b6114e9816114ce565b81146114f457600080fd5b50565b600081359050611506816114e0565b92915050565b600060208284031215611522576115216114a4565b5b6000611530848285016114f7565b91505092915050565b6000819050919050565b61154c81611539565b811461155757600080fd5b50565b60008135905061156981611543565b92915050565b600080fd5b6000601f19601f8301169050919050565b7f4e487b7100000000000000000000000000000000000000000000000000000000600052604160045260246000fd5b6115bd82611574565b810181811067ffffffffffffffff821117156115dc576115db611585565b5b80604052505050565b60006115ef61149a565b90506115fb82826115b4565b919050565b600067ffffffffffffffff82111561161b5761161a611585565b5b602082029050602081019050919050565b600080fd5b600061164461163f84611600565b6115e5565b905080838252602082019050602084028301858111156116675761166661162c565b5b835b81811015611690578061167c888261155a565b845260208401935050602081019050611669565b5050509392505050565b600082601f8301126116af576116ae61156f565b5b81356116bf848260208601611631565b91505092915050565b6000806000606084860312156116e1576116e06114a4565b5b60006116ef8682870161155a565b93505060206117008682870161155a565b925050604084013567ffffffffffffffff811115611721576117206114a9565b5b61172d8682870161169a565b9150509250925092565b60008115159050919050565b61174c81611737565b82525050565b60006020820190506117676000830184611743565b92915050565b61177681611539565b82525050565b6000602082019050611791600083018461176d565b92915050565b600080600080608085870312156117b1576117b06114a4565b5b60006117bf878288016114f7565b94505060206117d08782880161155a565b935050604085013567ffffffffffffffff8111156117f1576117f06114a9565b5b6117fd8782880161169a565b925050606085013567ffffffffffffffff81111561181e5761181d6114a9565b5b61182a8782880161169a565b91505092959194509250565b60006020828403121561184c5761184b6114a4565b5b600061185a8482850161155a565b91505092915050565b6000608082019050611878600083018761176d565b611885602083018661176d565b611892604083018561176d565b61189f606083018461176d565b95945050505050565b600080fd5b600067ffffffffffffffff8211156118c8576118c7611585565b5b6118d182611574565b9050602081019050919050565b82818337600083830152505050565b60006119006118fb846118ad565b6115e5565b90508281526020810184848401111561191c5761191b6118a8565b5b6119278482856118de565b509392505050565b600082601f8301126119445761194361156f565b5b81356119548482602086016118ed565b91505092915050565b60008060408385031215611974576119736114a4565b5b60006119828582860161155a565b925050602083013567ffffffffffffffff8111156119a3576119a26114a9565b5b6119af8582860161192f565b9150509250929050565b6000602082840312156119cf576119ce6114a4565b5b600082013567ffffffffffffffff8111156119ed576119ec6114a9565b5b6119f98482850161192f565b91505092915050565b611a0b816114ce565b82525050565b6000602082019050611a266000830184611a02565b92915050565b600081519050919050565b600082825260208201905092915050565b60005b83811015611a66578082015181840152602081019050611a4b565b83811115611a75576000848401525b50505050565b6000611a8682611a2c565b611a908185611a37565b9350611aa0818560208601611a48565b611aa981611574565b840191505092915050565b600060a082019050611ac9600083018861176d565b8181036020830152611adb8187611a7b565b9050611aea6040830186611a02565b8181036060830152611afc8185611a7b565b9050611b0b6080830184611743565b9695505050505050565b6000608082019050611b2a600083018761176d565b611b376020830186611a02565b611b44604083018561176d565b611b51606083018461176d565b95945050505050565b60008060408385031215611b7157611b706114a4565b5b6000611b7f8582860161155a565b9250506020611b908582860161155a565b9150509250929050565b6000606082019050611baf600083018661176d565b8181036020830152611bc18185611a7b565b9050611bd0604083018461176d565b949350505050565b6000604082019050611bed600083018561176d565b8181036020830152611bff8184611a7b565b90509392505050565b60008060008060808587031215611c2257611c216114a4565b5b6000611c308782880161155a565b945050602085013567ffffffffffffffff811115611c5157611c506114a9565b5b611c5d8782880161192f565b9350506040611c6e878288016114f7565b925050606085013567ffffffffffffffff811115611c8f57611c8e6114a9565b5b611c9b8782880161192f565b91505092959194509250565b600080600060608486031215611cc057611cbf6114a4565b5b6000611cce8682870161155a565b935050602084013567ffffffffffffffff811115611cef57611cee6114a9565b5b611cfb8682870161192f565b9250506040611d0c8682870161155a565b9150509250925092565b7f4e487b7100000000000000000000000000000000000000000000000000000000600052601160045260246000fd5b6000611d5082611539565b91507fffffffffffffffffffffffffffffffffffffffffffffffffffffffffffffffff821415611d8357611d82611d16565b5b600182019050919050565b600081519050919050565b600082825260208201905092915050565b6000819050602082019050919050565b611dc381611539565b82525050565b6000611dd58383611dba565b60208301905092915050565b6000602082019050919050565b6000611df982611d8e565b611e038185611d99565b9350611e0e83611daa565b8060005b83811015611e3f578151611e268882611dc9565b9750611e3183611de1565b925050600181019050611e12565b5085935050505092915050565b600060a082019050611e61600083018861176d565b611e6e602083018761176d565b611e7b604083018661176d565b8181036060830152611e8d8185611dee565b9050611e9c608083018461176d565b9695505050505050565b600060c082019050611ebb600083018961176d565b611ec86020830188611a02565b611ed5604083018761176d565b8181036060830152611ee78186611dee565b90508181036080830152611efb8185611dee565b9050611f0a60a083018461176d565b979650505050505050565b7f4e487b7100000000000000000000000000000000000000000000000000000000600052602260045260246000fd5b60006002820490506001821680611f5c57607f821691505b60208210811415611f7057611f6f611f15565b5b5091905056fea264697066735822122041c026789c379e2765826f5f4043a0c847c53bfc0df9a30a8f3323685a2b6fc464736f6c634300080a0033",
  "immutableReferences": {},
  "source": "// SPDX-License-Identifier: GPL-3.0\r\n\r\npragma solidity >=0.7.0 <0.9.0;\r\n\r\n// ToDo:-\r\n//[X] AddStateAdmin.\r\n//[X] AddDistrictAdmin.\r\n//[X] AddBags\r\n//[X] AddShops.\r\n//[] RemoveShops.\r\n//[X] mapAadhar_to_Metamask.\r\n//[] GetListofShopIds.\r\n//[] GetListofDistrictIds.\r\n//[X] AddItems.\r\n//[X] TransferBags.\r\n//[X] ReceivedBags.\r\n//[X] makeOrder.\r\n//[X] AddConsumers.\r\n//[X] CheckValidCustomer.\r\n//[] Get Shop Details.\r\n//[] Get List of Districts.\r\n//[] Get List of Shops.\r\n//[] List of Orders.  \r\n\r\ncontract PDS {\r\n\r\n    struct _Shop{\r\n        uint256 id;\r\n        string name;\r\n        address account;\r\n        string location;\r\n        bool exists;\r\n    }\r\n\r\n    struct _ItemsAvailable{\r\n        uint256 _id;\r\n        string name;\r\n        uint256 price;\r\n    }\r\n\r\n    struct _Bag{\r\n        uint256 id;\r\n        string item;\r\n    }\r\n\r\n    struct _Transfer{\r\n        uint256 id;\r\n        uint256 fromId;\r\n        uint256 toId;\r\n        uint256[] bagIds;\r\n        uint256 timestamp;\r\n    }\r\n\r\n    struct _Order{\r\n        uint256 id;\r\n        address customerId;\r\n        uint256 shopId;\r\n        uint256[] itemIds;\r\n        uint256[] quantities;\r\n        uint256 timestamp;\r\n    }\r\n\r\n    //events\r\n    event Transfered(\r\n        uint256 id,\r\n        uint256 fromId,\r\n        uint256 toId,\r\n        uint256[] bagIds,\r\n        uint256 timestamp\r\n    );\r\n    event Received(\r\n        uint256 id,\r\n        uint256 fromId,\r\n        uint256 toId,\r\n        uint256[] bagIds,\r\n        uint256 timestamp\r\n    );\r\n    event Order(\r\n        uint256 id,\r\n        address customerAddress,\r\n        uint256 shopId,\r\n        uint256[] itemIds,\r\n        uint256[] quantities,\r\n        uint256 timestamp\r\n    );\r\n\r\n    //Users memory\r\n    address creator;\r\n    uint256 public quantityOfBag;\r\n\r\n    mapping (address=>bool) public stateAdmin;\r\n    mapping (address=>bool) public districtAdmin;\r\n    //Used for Login Purpose.\r\n    mapping (string=>address) public AadharLinked;\r\n\r\n    mapping (uint256=>_Shop) public shops;\r\n    mapping (address=> bool) public consumer;\r\n    mapping (uint256 => _ItemsAvailable) public items;\r\n    mapping (uint256 => _Bag) public bags;\r\n    uint256 ordersCount;\r\n    uint256 transfersCount;\r\n    uint256 receivedCount;\r\n\r\n    _Order[] public orders;\r\n    _Transfer[] public transferHistory;\r\n    _Transfer[] public receivedHistory;\r\n\r\n    constructor(uint256 _quantityOfBag){\r\n        creator = msg.sender;\r\n        quantityOfBag = _quantityOfBag;\r\n    }\r\n\r\n    //Adding Users\r\n    function addStateAdmins(address _user) public{\r\n        require(msg.sender == creator);\r\n        stateAdmin[_user]=true;\r\n    }\r\n    function addDistrictAdmins(address _user) public{\r\n        require(stateAdmin[msg.sender]);\r\n        districtAdmin[_user]=true;\r\n    }\r\n\r\n    function addShops(uint256 _id, string memory _name, address _recipientAddress,string memory _location) public{\r\n        require(districtAdmin[msg.sender]);\r\n        _Shop memory shop = _Shop(_id, _name, _recipientAddress,_location,true);\r\n        shops[_id]=shop;\r\n    }\r\n    function addConsumer(address _user) public {\r\n        require(districtAdmin[msg.sender]);\r\n        consumer[_user]=true;\r\n    }\r\n    function addBags(uint256 _id, string memory _item) public{\r\n        require(stateAdmin[msg.sender]);\r\n        bags[_id]=_Bag(_id,_item);\r\n    }\r\n    function addItems(uint256 _id,string memory _name,uint256 _price) public{\r\n        require(stateAdmin[msg.sender]);\r\n        items[_id]=_ItemsAvailable(_id,_name,_price);\r\n    }\r\n    function setItems(uint256 _id,uint256 _price) public{\r\n        require(stateAdmin[msg.sender]);\r\n        items[_id].price=_price;      \r\n    }\r\n    function transferedBags(uint256 _fromId, uint256 _toId,uint256[] memory _bagIds)public {\r\n        require(stateAdmin[msg.sender]||districtAdmin[msg.sender]);\r\n        _Transfer memory obj = _Transfer(transfersCount,_fromId,_toId,_bagIds,block.timestamp);\r\n        transfersCount++;\r\n        transferHistory.push(obj);\r\n        emit Transfered(receivedCount,_fromId,_toId,_bagIds,block.timestamp);\r\n    }\r\n    function receivedBags(uint256 _fromId, uint256 _toId,uint256[] memory _bagIds)public {\r\n        require(districtAdmin[msg.sender]||shops[_toId].exists);\r\n        _Transfer memory obj = _Transfer(receivedCount,_fromId,_toId,_bagIds,block.timestamp);\r\n        receivedCount++;\r\n        receivedHistory.push(obj);\r\n        emit Received(receivedCount,_fromId,_toId,_bagIds,block.timestamp);\r\n    }\r\n\r\n    function orderMade(address _customer,uint256 _shopId,uint256[] memory _itemIds,uint256[] memory _quantities) public{\r\n        require(shops[_shopId].exists && shops[_shopId].account==msg.sender && consumer[_customer]);\r\n        _Order memory order = _Order(ordersCount,_customer,_shopId,_itemIds,_quantities,block.timestamp);\r\n        orders.push(order);\r\n        ordersCount++;\r\n        emit Order(order.id,_customer,_shopId,_itemIds,_quantities,block.timestamp);\r\n\r\n    }\r\n\r\n}",
  "sourcePath": "D:\\Web-Projects\\BlockChain-Projects\\pds-dotslash\\src\\contracts\\PDS.sol",
  "compiler": {
    "name": "solc",
    "version": "0.8.10+commit.fc410830.Emscripten.clang"
  },
  "schemaVersion": "3.4.4",
  "updatedAt": "2022-01-10T09:16:23.151Z",
  "networkType": "ethereum",
  "devdoc": {
    "kind": "dev",
    "methods": {},
    "version": 1
  },
  "userdoc": {
    "kind": "user",
    "methods": {},
    "version": 1
  }
}